:020000040800F2
:10000000000003203D170008D50F0008D70F000897
:10001000D90F0008DB0F0008DD0F0008000000000A
:10002000000000000000000000000000DF0F0008DA
:10003000E10F000800000000E30F0008E50F0008D2
:100040008D1700088D1700088D1700088D17000800
:100050008D1700088D1700088D1700088D170008F0
:100060008D1700088D1700088D1700088D170008E0
:100070008D1700088D1700088D1700088D170008D0
:100080008D1700088D1700088D1700088D170008C0
:100090008D1700088D1700088D1700088D170008B0
:1000A0008D1700088D1700088D1700088D170008A0
:1000B0008D1700088D1700088D1700088D17000890
:1000C0008D1700088D1700088D1700088D17000880
:1000D0008D1700088D1700088D1700088D17000870
:1000E0008D1700088D1700088D1700088D17000860
:1000F0008D1700088D1700088D1700088D17000850
:100100008D1700088D1700088D1700088D1700083F
:100110008D1700088D1700088D1700088D1700082F
:100120008D1700088D1700088D1700088D1700081F
:100130008D1700088D1700088D1700088D1700080F
:100140008D1700088D1700088D1700088D170008FF
:100150008D1700088D1700088D1700088D170008EF
:100160008D1700088D1700088D1700088D170008DF
:100170008D1700088D1700088D170008000000007B
:100180008D1700088D1700088D1700088D170008BF
:100190008D1700088D1700088D1700088D170008AF
:0C01A0008D1700088D1700088D1700084F
:1001AC0010B5054C237833B9044B13B10448AFF3A5
:1001BC0000800123237010BD5408002000000000B3
:1001CC00A83D000808B5034B1BB103490348AFF326
:1001DC00008008BD0000000058080020A83D000861
:1001EC0053B94AB9002908BF00281CBF4FF0FF3192
:1001FC004FF0FF3000F074B9ADF1080C6DE904CE8E
:10020C0000F006F8DDF804E0DDE9022304B07047E5
:10021C002DE9F047089E0D4604468846002B4DD12B
:10022C008A42944668D9B2FA82F252B101FA02F3C8
:10023C00C2F1200120FA01F10CFA02FC41EA030898
:10024C0094404FEA1C45210CB8FBF5FE1FFA8CF7C5
:10025C0005FB1E8341EA03430EFB07F199420BD9C0
:10026C001CEB03030EF1FF3080F01E81994240F22B
:10027C001B81AEF1020E63445B1AA4B2B3FBF5F022
:10028C0005FB103344EA034400FB07F7A7420AD9E5
:10029C001CEB040400F1FF3380F00881A74240F20C
:1002AC00058164440238E41B40EA0E4000211EB173
:1002BC00D4400023C6E90043BDE8F0878B4208D93F
:1002CC00002E00F0EE800021C6E900050846BDE8CE
:1002DC00F087B3FA83F100294AD1AB4202D38242B0
:1002EC0000F2F980841A65EB030301209846002E76
:1002FC00E2D0C6E90048DFE702B9FFDEB2FA82F2CB
:10030C00002A40F09180A1EB0C054FEA1C471FFA24
:10031C008CFE0121B5FBF7F307FB1350250C45EAC6
:10032C0000450EFB03F0A84208D91CEB050503F1B0
:10033C00FF3802D2A84200F2CB8043462D1AA4B259
:10034C00B5FBF7F007FB105544EA05440EFB00FE25
:10035C00A64508D91CEB040400F1FF3502D2A645D2
:10036C0000F2BB802846A4EB0E0440EA03409EE753
:10037C00C1F120078B4022FA07FC4CEA030C20FA4F
:10038C0007F405FA01F31C43FD404FEA1C4900FA3F
:10039C0001F3B5FBF9F8200C1FFA8CFE09FB18557C
:1003AC0040EA054508FB0EF0A84202FA01F20BD90F
:1003BC001CEB050508F1FF3A80F08880A84240F25A
:1003CC008580A8F1020865442D1AA4B2B5FBF9F09A
:1003DC0009FB105544EA054500FB0EFEAE4508D955
:1003EC001CEB050500F1FF346CD2AE456AD902381E
:1003FC00654440EA0840A0FB0294A5EB0E05A5421B
:10040C00C846A64656D353D05EB1B3EB080265EB93
:10041C000E0505FA07F722FA01F3CD401F43C6E992
:10042C0000750021BDE8F087C2F1200320FA03F12A
:10043C000CFA02FC25FA03F395400D434FEA1C47D6
:10044C001FFA8CFEB3FBF7F107FB11302B0C43EAC0
:10045C00004301FB0EF0984204FA02F408D91CEB9D
:10046C00030301F1FF382FD298422DD9023963448E
:10047C001B1AADB2B3FBF7F007FB103345EA03458B
:10048C0000FB0EF3AB4208D91CEB050500F1FF385D
:10049C0016D2AB4214D902386544ED1A40EA014138
:1004AC0038E73146304607E78646E5E61846FAE671
:1004BC004B45A9D2B9EB020864EB0C0E0138A3E74B
:1004CC004046EAE7204694E74146D1E7D0467BE731
:1004DC00023B654432E7084609E76444023842E7C8
:1004EC00704700BF70B50025AE46104BAC4603E01C
:1004FC004FF0000E0CF1010CBCF1090F15D8B1FB3B
:10050C00F3F40EF1010604F13002D2B200F80E2021
:10051C0003FB1411064CA4FB0343DB08302A08BF71
:10052C00002DE5D00135B646E4E770BD00CA9A3B14
:10053C00CDCCCCCC10B584460378302B03D0002422
:10054C002046234654E04378782B35D0582B36D0B0
:10055C000024204623464BE02401A3F1300E5FFA21
:10056C008EFEBEF1090F21D8303B1C4401300A2805
:10057C0015D81CF8003093B1A3F14102D2B2052A70
:10058C00EAD9A3F1610E5FFA8EFEBEF1050FE3D935
:10059C00A3F1300E5FFA8EFEBEF1090FDCD91CF808
:1005AC000030002B3BD10C60012010BD052A01D876
:1005BC00373BDAE7573BD8E700240220D7E7002483
:1005CC000220D4E76B2A1ED04B2A1CD06D2A20D0D7
:1005DC004D2A1ED0A2F1300E5FFA8EFEBEF1090F2D
:1005EC00E3D804EB840402EB4402A2F1300401339F
:1005FC000A2BDAD80028D8D11CF80320002AE1D124
:10060C000C600120F3E7002BE0D0A4020C60012069
:10061C00EDE7002BDED024050C600120E7E700207D
:10062C00C3E7000008B50146002201E0013292B296
:10063C008B5C002BFAD16423014802F01CFA08BD34
:10064C00C408002000B583B08DF807000A4B93F85E
:10065C003D30DBB2A02B09D0642301220DF1070140
:10066C00054802F008FA03B05DF804FB024B2022A7
:10067C0083F83D20F0E700BFC408002000F1784368
:10068C00B3F5804F45D3A3F58043B3F5804F42D3E8
:10069C0000F17843A3F50043B3F5804F3DD300F14F
:1006AC007843A3F54043B3F5804F38D300F177433B
:1006BC0003F57F03B3F5803F33D300F1774303F5A4
:1006CC007E03B3F5003F2ED300F1774303F57C0393
:1006DC00B3F5003F29D300F1774303F57A03B3F563
:1006EC00003F24D300F1774303F57803B3F5003FC3
:1006FC001FD300F1774303F57603B3F5003F1AD30C
:10070C0000F1774000F57400B0F5003F15D20A20D7
:10071C00704700207047012070470220704703206B
:10072C00704704207047052070470620704707204B
:10073C00704708207047092070470B207047000055
:10074C0008B501F081F9024BF322DA6008BD00BF55
:10075C00003C024000B587B0FFF7F2FF0948FFF7F5
:10076C008DFF0023009302900A230393022304932A
:10077C0005A9684601F0CAFB10B907B05DF804FB87
:10078C000120FAE700000108F8B504460E461746AA
:10079C000025BD4218D20D4B9C420FD856F825208F
:1007AC0000232146022001F0B5F948B9216856F81A
:1007BC002530994206D104340135EAE7002004E0E3
:1007CC00032002E0022000E00020F8BDFCFF0F082F
:1007DC0000B589B001F038F901A801F027FB01F050
:1007EC004BF9039BDB43C3F30B031BB9002009B08C
:1007FC005DF804FB0220FAE710B58EB0044668469B
:10080C0001F014FB089401230793AA230B939DF882
:10081C0018308DF83430029C6FEA14346FEA0434CB
:10082C0001F012F901F032F9099407A801F0BCFAB1
:10083C000EB010BD10B58AB0002205920692079238
:10084C000892099201921D4B196B41F00401196336
:10085C00196B01F00401019101990292196B41F09D
:10086C0080011963196B01F08001029102990392C6
:10087C00196B41F002011963196B01F0020103912C
:10088C00039904921A6B42F001021A631B6B03F07A
:10089C0001030493049B0A4C01221146204601F0EB
:1008AC0086FC01230593069307930323089305A95C
:1008BC00204601F077FB0AB010BD00BF00380240A3
:1008CC000004024070B588B0002400941D4B1A6BD4
:1008DC0042F001021A631A6B02F001020092009AB4
:1008EC0001941A6B42F004021A631A6B02F00402B0
:1008FC000192019A02941A6B42F080021A631B6BEC
:10090C0003F080030293029B0126039604940223B6
:10091C0005930325069503A90B4801F043FB4FF4FF
:10092C000053039304940596069503A9074801F018
:10093C0039FB0C2303930DEB0301054801F032FB4B
:10094C0008B070BD003802400000024000080240B0
:10095C00001C024008B5012819D0344B1B783BB35E
:10096C000821334801F01CFC20B10421304801F06F
:10097C0017FC80B90A2000F057FF2C4B00221A708C
:10098C0008212B4801F00CFCD0B9012017E0274BB3
:10099C0001221A70E1E74FF40051264801F000FCE7
:1009AC000028E7D00121244801F0FAFB0128E1D00E
:1009BC0008211F4801F0F4FB012814D0002008BDC9
:1009CC0004211B4801F0ECFB38B34FF400511948DB
:1009DC0001F0E6FB18B30121174801F0E1FB0128F7
:1009EC001FD00020EBE70421114801F0D9FB0128AE
:1009FC0001D00020E3E74FF400510E4801F0D0FB8A
:100A0C00012801D00020DAE701210B4801F0C8FBD6
:100A1C0048B9064B01221A70D1E70220CFE7032018
:100A2C00CDE70420CBE70020C9E700BF0000002081
:100A3C00001C0240000802400000024008B5094BAF
:100A4C001A68094B1340B3F1005F00D008BD054A8A
:100A5C00536806490B6006490B60126882F30888DC
:100A6C009847F3E7000001080000F02F74080020FD
:100A7C007808002072B6FEE700B595B03022002150
:100A8C0008A802F001F9002303930493059306933D
:100A9C0007930193234A116C41F080511164126C3D
:100AAC0002F080520192019A02931F4B1A6842F491
:100ABC0040421A601B6803F440430293029B0123DB
:100ACC0008934FF48033099302230E934FF4800262
:100ADC000F92192210924FF4B472119212930423B4
:100AEC00139308A801F0A8FBB0B901F067FBA8B9F3
:100AFC000F23039302230493002305934FF4A05375
:100B0C0006934FF480530793052103A801F0E2FDEF
:100B1C0030B915B05DF804FBFFF7ACFFFFF7AAFF87
:100B2C00FFF7A8FF003802400070004008B500F045
:100B3C004FFE134800F0C8F9FFF79EFFFFF77AFE4F
:100B4C0000F074FAFFF7BEFE0E4C00220121204685
:100B5C0001F02DFB41F2883000F066FE01221146B7
:100B6C00204601F024FB0020FFF7F4FE032802D0FE
:100B7C00FFF764FFFEE7FFF7E3FD00F08DF8F9E700
:100B8C00C40800200004024000B585B00023019386
:100B9C000293CDF80B3000931A48FFF743FD6846DB
:100BAC0000F0B0FB48B1052820D0042822D0022840
:100BBC0024D01548FFF736FD15E01448FFF732FD39
:100BCC001348FFF72FFD009901A8FFF78BFC114884
:100BDC00FFF728FD01A8FFF725FD0F48FFF722FDC1
:100BEC000E48FFF71FFD05B05DF804FB0C48FFF73E
:100BFC0019FDF8E70B48FFF715FDF4E70A48FFF776
:100C0C0011FDF0E7C03D0008F43E0008FC3D000873
:100C1C007C080020503E00085C3E0008683E00083E
:100C2C00803E0008C03E0008DC3E000800B583B0E2
:100C3C0000238DF807301148FFF7F4FC4FF0FF3319
:100C4C0001220DF107010E4801F081FF9DF80730DC
:100C5C00432B02D003B05DF804FB0A4A0A490B4847
:100C6C0000F036FC8DF8070018B10948FFF7DAFCE4
:100C7C00F0E70848FFF7D6FCECE700BF143F00088C
:100C8C00C408002001000F00303F000800000108DC
:100C9C00483F0008743F000800B583B000238DF86E
:100CAC0007306448FFF7BEFC634D2846FFF7BAFCDB
:100CBC006248FFF7B7FC624C2046FFF7B3FC614873
:100CCC00FFF7B0FC6048FFF7ADFC6048FFF7AAFCEB
:100CDC005F48FFF7A7FC5F48FFF7A4FC2046FFF72F
:100CEC00A1FC5D48FFF79EFC2046FFF79BFC5B4890
:100CFC00FFF798FC2046FFF795FC5948FFF792FC4C
:100D0C002046FFF78FFC2846FFF78CFC554C2046FD
:100D1C00FFF788FC544D2846FFF784FC5348FFF737
:100D2C0081FC534E3046FFF77DFC5248FFF77AFCAE
:100D3C003046FFF777FC5048FFF774FC2846FFF766
:100D4C0071FC2046FFF76EFC05E04C48FFF76AFC8F
:100D5C0017E0FFF719FFFFF73BFD494C20604948AE
:100D6C00FFF760FC4848FFF75DFC4848FFF75AFC6A
:100D7C004748FFF757FC2368002BE6D04548FFF7A0
:100D8C0051FC4548FFF74EFC444803685B684FF044
:100D9C00FF3301220DF1070101F0D9FE9DF8073058
:100DAC00313B032B42D801A252F823F05F0D00080F
:100DBC00C90D0008CF0D0008EB0D0008FFF736FF3A
:100DCC00C9E73748FFF72EFC364A536836490B60A3
:100DDC0036490B60126882F308889847BBE7284BAA
:100DEC001B6893B10020FFF707FD50B93048FFF79F
:100DFC0019FC3048FFF716FC00F0CAFE00F024FE88
:100E0C00A9E72D48FFF70EFCA5E70120FFF7F4FC3E
:100E1C0040B92A48FFF706FC2648FFF703FC00F010
:100E2C00B7FE98E72648FFF7FDFB94E72548FFF748
:100E3C00F9FB90E7B4460008943F0008E83F00082F
:100E4C003C40000890400008E4400008384100088D
:100E5C008C410008E0410008344200088842000838
:100E6C00DC42000830430008384300088443000883
:100E7C00D04300081C44000868440008F4450008EE
:100E8C0070080020B4440008F444000834450008FD
:100E9C0074450008B445000834460008C408002016
:100EAC00744600080000010874080020780800202F
:100EBC0098460008B8460008D846000808470008BD
:100ECC00284700085447000808B5054B1860054B27
:100EDC001868002302221946806801F027FF08BD1C
:100EEC00BC0800201000002010B5013801280AD8D9
:100EFC0014464FF0FF3392B20748006801F0BBFD77
:100F0C0040B9204610BD01F095FE092303604FF057
:100F1C00FF30F7E70520F5E7BC080020022801D8D0
:100F2C000020704708B501F085FE092303604FF0DF
:100F3C00FF3008BD08B501F07DFE092303604FF0BA
:100F4C00FF3008BD08B548B94FF0FF3301220848FF
:100F5C00006801F0FCFD40B9012008BD01F06AFEFB
:100F6C00092303604FF0FF30F7E70520F5E700BFDA
:100F7C00BC08002008B5022804D84FF400534B607D
:100F8C00002008BD01F056FE09230360F8E70000BD
:100F9C0082B0002100910B4B5A6C42F480425A648F
:100FAC005A6C02F480420092009A01911A6C42F041
:100FBC0080521A641B6C03F080530193019B02B0A6
:100FCC00704700BF00380240FEE7FEE7FEE7FEE791
:100FDC00FEE770477047704708B500F013FC08BD7A
:100FEC0010B503460C4A0D490D48006840B10C4839
:100FFC0000680344521A934206D8094A136010BD84
:10100C000748084C0460F2E701F014FE0C2303605F
:10101C004FF0FF30F3E700BF000003200004000096
:10102C00C0080020800D00207047000008B50A4859
:10103C000A4B03604FF4E133436000238360C360C9
:10104C0003610C2242618361C36101F0E5FC00B9CC
:10105C0008BDFFF70FFDFBE7C4080020001001409E
:10106C0000B589B00023039304930593069307936B
:10107C00026803F1804303F588339A4202D009B029
:10108C005DF804FB0021019103F594335A6C42F096
:10109C0010025A645A6C02F010020192019A0291E9
:1010AC001A6B42F001021A631B6B03F001030293EB
:1010BC00029B4FF4C0630393022304930323069310
:1010CC000723079303A9024800F06CFFD7E700BF82
:1010DC000000024000B59C46B3F5806F0DD3B3F50C
:1010EC00806F28BF4FF4806C02234B704FF4806EDE
:1010FC008A70D243CA7004220CE0802B28BF4FF0B8
:10110C00800C01234B704FF0800EF1E710F8013B7F
:10111C008B5401320CF104039342F7D8E64501D20B
:10112C005DF804FB0EF104029A42F9D91A22CA5452
:10113C000133F7E770B584B005460E46114601231E
:10114C00437000248470FF23C370335D2BB13F2C9C
:10115C0003D8201D2B540134F7E7231D0026EE5431
:10116C0001A8FFF7BFF90534334602E001332A55D5
:10117C00013403F110026A4412F80C2C002AF5D148
:10118C0002E000232B550134832CFAD904B070BD36
:10119C0041F4807106E080F4815080F0010011F47C
:1011AC00803F09D14000490011F4807F00D001300C
:1011BC0010F4803FF3D0EEE780B2704738B50446A8
:1011CC004518002004E014F8011B80B2FFF7E0FF83
:1011DC00AC42F8D3002180B2FFF7DAFF0021FFF711
:1011EC00D7FF38BD2DE9F04182B006460C461546B6
:1011FC0000230B60134601220DF10701404801F05A
:10120C00A6FC8046002872D19DF80710182919D821
:10121C004BB2002B48D0013917290FD8DFE801F069
:10122C0048310E0C0E0E0E0E0E0E0E0E0E0E0E0E77
:10123C000E0E0E0E0E0E0E3400270AE04FF00108B3
:10124C00002706E0412935D0612937D14FF002083B
:10125C0000279DF8073033707F2F49D92B463A1D54
:10126C00B11C274801F073FC8046002845D1B278A8
:10127C00F378DB43DBB29A422AD04FF00108002707
:10128C0036E04FF48067E4E72B4601220DF10701AD
:10129C001B4801F05CFCA8B99DF80730182B15D041
:1012AC004FF001080027D4E74FF001080027D0E7E2
:1012BC008027CEE74FF002080027CAE74FF001085D
:1012CC000027C6E74FF001080027C2E70227C0E756
:1012DC00F3191A795D7905EB02253946301DFFF7B4
:1012EC006DFFA84204D04FF00108002700E0002752
:1012FC002760404602B0BDE8F0810027F8E700BF48
:10130C00C40800202DE9F04F89B08346694B6A4A26
:10131C001A600026B2463546B146B9F1000F40F0CE
:10132C00C480002E40F0C180C8464F469AE0079D0D
:10133C003DB1022D0AD10620FFF784F93D46022665
:10134C0090E00620FFF77EF901278BE05B4B9A7843
:10135C005FFA88F39A420CD1B8F1000F63D1574B66
:10136C001B79CBB90620FFF76DF945460127B94625
:10137C0078E01520FFF766F93D4673E001335048DD
:10138C0081540132197809B13F2AF7D94C49002010
:10139C0088540133424609E042464A4BF2E7013396
:1013AC0002F12000684400F8181C01321978202939
:1013BC0001D00F2AF3D902F120030DEB0302002315
:1013CC0002F8183C06A902A8FFF7B4F8DBF80020D5
:1013DC003D4B9A4211D83848FFF7BCF9069BCBF825
:1013EC0000300620FFF72EF94320FFF72BF908F108
:1013FC0001083D464FF0010A34E018238DF8073000
:10140C00324C4FF4801301220DF10701204601F0FC
:10141C0032FB4FF4801301220DF10701204601F03D
:10142C002AFB0526D7E7234B1868AA082549FFF79E
:10143C00ABF940B91F4A136807990B441360062097
:10144C00FFF700F9D3E71820FFF7FCF81820FFF797
:10145C00F9F80426CBE71820FFF7F4F81820FFF76B
:10146C00F1F82646002F7FF458AF002E7FF455AFCD
:10147C0041F2883207A91148FFF7B4FE0446002850
:10148C003FF455AF0228E6D0BAF1000F00D0013579
:10149C00052D06D91820FFF7D5F81820FFF7D2F83C
:1014AC00E0E74320FFF7CEF8DCE7304609B0BDE8B3
:1014BC00F08F00BF100D002000000108080900206B
:1014CC007C0800200C09002002000F00C40800203A
:1014DC002DE9F04F85B0834691469348FFF72AFEDD
:1014EC004FF00008CDF804804646474603E001362D
:1014FC00042E00D90127019B002B40F08D80002F7A
:10150C003AD1894C894D4FF480138322611C2846B3
:10151C0001F0B1FA8021201DFFF750FE0446C0F304
:10152C000720FFF78FF8E0B2FFF78CF84FF4801329
:10153C00012203A9284601F00AFB0028D7D19DF807
:10154C000C30062B15D0182BD2D14FF4801301225E
:10155C0003A9284601F0FBFA0028C9D19DF80C30EC
:10156C00182BC5D1022000F05FF92B685B680227AD
:10157C00BEE701230193BBE7B846012301934CE07E
:10158C00802514E0AB44D1464FF0010A00E001364F
:10159C00042E01D94FF00108BAF1000F3DD1B8F17A
:1015AC00000F3AD1B9F5806FEAD34FF480655E4CE9
:1015BC005E4F4FF48013EA1C611C384601F05BFA55
:1015CC002946201DFFF7FAFD0446C0F30720FFF75C
:1015DC0039F8E0B2FFF736F84FF48013012203A973
:1015EC00384601F0B4FA0028D1D19DF80C30062B06
:1015FC00CDD1A945C6D9AB44A9EB0509019BB3F5DF
:10160C00707F04D0013301934FF0010AC0E74FF013
:10161C0005084FF0010ABBE7B846B9F1000F0ED030
:10162C00B8F1000F0BD14B469DF804203E495846AB
:10163C00FFF750FD00268DF80C60B246ACE7002495
:10164C008DF80C402546464603E00134042C00D9A5
:10165C0001264DBB46BB0420FEF7F4FF4FF480136C
:10166C00012203A9314801F072FA0028EDD19DF84E
:10167C000C30062B16D0182BE8D14FF48013012216
:10168C0003A92A4801F063FA0028DFD19DF80C3039
:10169C00182BDBD1022000F0C7F8244B1B685B68C9
:1016AC000226D3E70125D1E7B04686BB1E4B0122AB
:1016BC005A7000229A70FF22DA70042304E01A4A4E
:1016CC000021D1540133DBB2832BF8D9164C174DC2
:1016DC004FF480138322611C284601F0CCF9802141
:1016EC00201DFFF76BFD0446C0F30720FEF7AAFF91
:1016FC00E0B2FEF7A7FF4FF48013012203A928469E
:10170C0001F025FA18B99DF80C30182B03D040467F
:10171C0005B0BDE8F08F022000F086F82B685B68FE
:10172C004FF00208F3E700BF08090020C4080020AE
:10173C00DFF834D00D480E490E4A002302E0D4588D
:10174C00C4500433C4188C42F9D30B4A0B4C0023FD
:10175C0001E013600432A242FBD3FFF765FC01F0F9
:10176C006FFAFFF7E3F97047000003200000002038
:10177C0054080020C447000854080020800D0020A5
:10178C00FEE7000010B504460E4B18784FF47A7340
:10179C00B3FBF0F30C4A1068B0FBF3F000F0A2F8C6
:1017AC0068B90F2C01D901200AE0002221464FF024
:1017BC00FF3000F05FF8054B1C60002000E00120BA
:1017CC0010BD00BF08000020040000200C00002009
:1017DC0008B50B4B1A6842F400721A601A6842F48E
:1017EC0080621A601A6842F480721A60032000F05A
:1017FC002FF80F20FFF7C6FFFFF7CAFB002008BD2C
:10180C00003C0240034A1168034B1B780B441360E5
:10181C00704700BF140D002008000020014B186811
:10182C00704700BF140D002038B50446FFF7F6FFD3
:10183C000546B4F1FF3F02D0044B1B781C44FFF764
:10184C00EDFF401BA042FAD338BD00BF08000020BA
:10185C00074AD36823F4E0631B041B0C000200F45A
:10186C00E060034343F0BF6343F40033D36070473D
:10187C0000ED00E000B5194BDB68C3F30223C3F1A4
:10188C00070CBCF1040F28BF4FF0040C03F1040E3D
:10189C00BEF1060F18D9033B4FF0FF3E0EFA0CFCBD
:1018AC0021EA0C0199400EFA03F322EA03031943CF
:1018BC0000280BDB0901C9B200F1604000F5614062
:1018CC0080F800135DF804FB0023E5E700F00F003F
:1018DC000901C9B2024B1954F4E700BF00ED00E056
:1018EC0014ED00E00138B0F1807F0BD24FF0E02313
:1018FC005861054AF02182F82310002098610722D4
:10190C001A6170470120704700ED00E010B40949DE
:10191C000C6924F440740C610C6944F440740C613F
:10192C000C6944F001040C610260BFF36F8F4360DB
:10193C0010BC7047003C0240074B1A6922F44072FD
:10194C001A611A6942F400721A611A6942F00102B2
:10195C001A610160704700BF003C0240074B1A69D6
:10196C0022F440721A611A6942F480721A611A697F
:10197C0042F001021A610180704700BF003C024036
:10198C00064B1A6922F440721A611A691A611A69B3
:10199C0042F001021A610170704700BF003C024026
:1019AC00274BDB6813F0100F07D0264AD36943F09E
:1019BC001003D361224B1022DA60214BDB6813F049
:1019CC00200F07D01F4AD36943F00803D3611C4B87
:1019DC002022DA601A4BDB6813F0400F07D0194A4B
:1019EC00D36943F00403D361154B4022DA60144BE6
:1019FC00DB6813F0800F07D0124AD36943F002035F
:101A0C00D3610F4B8022DA600D4BDB6813F4807FBF
:101A1C0008D00C4AD36943F00103D361084B4FF44F
:101A2C008072DA60064BDB6813F0020F07D0054AB0
:101A3C00D36943F02003D361014B0222DA60704773
:101A4C00003C0240180D0020094B1B69002B01DBE8
:101A5C0000207047064B074A5A6002F188325A60E0
:101A6C001B69002B01DB002070470120704700BF71
:101A7C00003C024023016745034A136943F00043CD
:101A8C0013610020704700BF003C0240074B5B69AC
:101A9C0013F0010F07D0054B054A9A6002F144324E
:101AAC009A60002070470120704700BF003C024044
:101ABC003B2A190838B50446144B0022DA61FFF7AB
:101ACC00ADFE0546124BDB6813F4803F0AD0B4F12F
:101ADC00FF3FF7D024B1FFF7A1FE401BA042F1D984
:101AEC0003200DE00A4BDB6813F0010F02D0084B0A
:101AFC000122DA60064BDB6813F4F97F01D1002078
:101B0C0038BDFFF74DFF0120FAE700BF180D00208C
:101B1C00003C0240F8B516461B4A127E012A30D012
:101B2C0004460D461F46184B01221A764CF25030D3
:101B3C00FFF7C0FF90B9ACB1012C18D0022C1BD010
:101B4C0032463B462846FFF7E1FE4CF25030FFF799
:101B5C00B1FF0E4A136923F0010313610A4B0022F3
:101B6C001A76F8BDF1B22846FFF70AFFEDE7B1B2DD
:101B7C002846FFF7F3FEE8E731462846FFF7DCFE80
:101B8C00E3E70220EDE700BF180D0020003C024007
:101B9C0008B5054A137D43F0020313754CF250301F
:101BAC00FFF788FF08BD00BF003C0240114A1369D3
:101BBC0023F44073136103290ED0012913D00D4A6D
:101BCC00136943F4004313610A4A136943EA002082
:101BDC0040F4803010617047136943F4004343F0C4
:101BEC0004031361F0E7034A136943F00403136120
:101BFC00EAE700BF003C0240044B197D01F0F30101
:101C0C0019751A7D02431A7500207047003C02407A
:101C1C00024B586900F0E000704700BF003C0240E6
:101C2C00014BD88A80B27047003C0240054B587D6E
:101C3C00C0B2CC2804D0587DC0B2AA2800D0552000
:101C4C00704700BF003C0240024B187D00F00C00B6
:101C5C00704700BF003C024038B504460D464CF2BC
:101C6C005030FFF727FF20BB1A4B9C420CD0B4F529
:101C7C00805F15D2174B9C420BD0174AD38A9BB26C
:101C8C0023EA0403D38211E0012DF3D0032DEED10E
:101C9C00F0E7114AD38A9BB223EA1433D38205E0CE
:101CAC000D4A538B9BB223EA14335383094B9C424A
:101CBC0000D038BD032DFCD14CF25030FFF7FAFEAA
:101CCC000028F6D1044A538B9BB223EA1434548374
:101CDC00EFE700BF00F0FF00003C024038B50446BF
:101CEC000D464CF25030FFF7E5FE30BB1B4B9C42CF
:101CFC000CD0B4F5805F16D2184B9C420BD0184A0E
:101D0C00D38A9BB2A1B20B43D38213E0012DF3D043
:101D1C00032DEED1F0E7124AD38A9BB2C4F30F31F4
:101D2C000B43D38206E00E4A538B9BB2C4F30F31A4
:101D3C000B435383094B9C4200D038BD032DFCD17F
:101D4C004CF25030FFF7B6FE0028F6D1044A538B04
:101D5C009BB2C4F30F341C435483EEE700F0FF0036
:101D6C00003C024010B504464CF25030FFF7A2FE86
:101D7C0008B9014B5C7510BD003C0240F8B5044637
:101D8C000E4615464CF25030FFF794FE48B9054FFD
:101D9C003B7D03F01F0343EA060141EA050222439F
:101DAC003A75F8BD003C02401F4B1B7E012B38D00E
:101DBC0010B504461C4B01221A76036813F0010F70
:101DCC000CD04368934204D0C1688068FFF786FF4B
:101DDC0005E0C1688068FFF73FFF00E00120236841
:101DEC0013F0020F0BD1236813F0040F0BD12368EF
:101DFC0013F0080F11D10C4B00221A7610BD207C69
:101E0C00FFF7B0FFEFE7207E00F0800200F040010A
:101E1C0000F02000FFF7B2FFE9E7207DFFF7ECFEB2
:101E2C00E9E70220704700BF180D002010B50446EA
:101E3C000F230360FFF7F4FEA060FFF7F7FE2061AD
:101E4C00FFF7E6FE2076FFF7FFFE606110BD000095
:101E5C0049B1012924D0022902D04FF4407C04E07E
:101E6C004FF4007C01E04FF0000C0B2800D904303B
:101E7C000D4B196921F4407119611A6942EA0C027F
:101E8C001A611A6922F0F8021A611A6942EAC00052
:101E9C0040F0020018611A6942F480321A617047EE
:101EAC004FF4807CE1E700BF003C0240164B1B68FE
:101EBC0013F4007F10D0144B1A6822F400721A60CD
:101ECC001A6842F400621A601A6822F400621A60FE
:101EDC001A6842F400721A600B4B1B6813F4806F83
:101EEC0010D0094B1A6822F480621A601A6842F406
:101EFC0080521A601A6822F480521A601A6842F4EE
:101F0C0080621A60704700BF003C0240F8B5234B5A
:101F1C001B7E012B40D004460E46204B01221A7624
:101F2C004CF25030FFF7C6FD074680BB4FF0FF3335
:101F3C0033602368012B16D0A568E368A2681344AC
:101F4C00AB4222D9217C2846FFF782FF4CF250305D
:101F5C00FFF7B0FD124A136923F0FA031361074629
:101F6C0090B90135E9E76168207CFFF71FFE4CF260
:101F7C005030FFF79FFD0746094A136923F40043CD
:101F8C0023F00403136100E03560FFF78FFF034B70
:101F9C0000221A763846F8BD0227FBE7180D002000
:101FAC00003C024000230F2B00F2F18070B582B090
:101FBC0061E085685E000324B44025EA0405CC6822
:101FCC00B4402C438460456825EA02054C68C4F390
:101FDC0000129A402A4342605BE0DC08083450F857
:101FEC00246003F0070295000F22AA4026EA020E95
:101FFC000A69AA4042EA0E0240F824205DE0092258
:10200C0000E0002202FA0EF22A430234604D45F839
:10201C002420604A94686FEA0C0224EA0C054E688E
:10202C0016F4801F01D04CEA04055A4CA560E468F4
:10203C0002EA04054E6816F4001F01D04CEA0405B0
:10204C00544CE560646802EA04054E6816F4003FDF
:10205C0001D04CEA04054F4C6560246822404D6861
:10206C0015F4803F01D04CEA04024A4C2260013343
:10207C000F2B00F28A8001229A400C6804EA020CB1
:10208C0032EA0404F3D14C6804F00304013C012C43
:10209C008FD94A6802F00302032A09D0C4685D0094
:1020AC000322AA4024EA02048A68AA402243C2609E
:1020BC004A6802F00302022A8FD004684FEA430EEA
:1020CC00032202FA0EF224EA02044A6802F0030226
:1020DC0002FA0EF2224302604A6812F4403FC6D064
:1020EC00002201922C4A546C44F480445464526C87
:1020FC0002F480420192019A9C08A51C244A52F8D1
:10210C00255003F003024FEA820E0F2202FA0EF260
:10211C0025EA0205214A90423FF473AF02F5806232
:10212C00904222D002F58062904220D002F580626B
:10213C0090421ED002F5806290421CD002F5806263
:10214C0090421AD002F58062904218D002F580625B
:10215C00904216D002F58062904214D002F5806253
:10216C0090423FF44CAF0A224CE701224AE702228C
:10217C0048E7032246E7042244E7052242E7062209
:10218C0040E707223EE708223CE702B070BD7047EB
:10219C0000380140003C0140003802400000024081
:1021AC000369194201D001207047002070470AB121
:1021BC0081617047090481617047000010B582B0DD
:1021CC0000230193194B1A6C42F080521A641B6C59
:1021DC0003F080530193019B154B01221A64FFF706
:1021EC001DFB0446134B5B6813F4803F08D1FFF7CB
:1021FC0015FB001BB0F57A7FF4D9032002B010BD9B
:10220C000B4B01225A64FFF709FB0446094B5B6830
:10221C0013F4003F07D1FFF701FB001BB0F57A7FE9
:10222C00F4D90320EAE70020E8E700BF00380240B9
:10223C0000000E4200700040002800F0E08170B5F4
:10224C0082B00446036813F0010F3BD09F4B9B6890
:10225C0003F00C03042B2CD09C4B9B6803F00C0359
:10226C00082B21D06368B3F5803F4FD0B3F5A02F76
:10227C0052D0964B1A6822F480321A601A6822F4F3
:10228C0080221A606368002B50D0FFF7C7FA05460E
:10229C008E4B1B6813F4003F14D1FFF7BFFA401BA1
:1022AC006428F5D90320B1E1884B5B6813F4800FE7
:1022BC00D8D0864B1B6813F4003F03D06368002B07
:1022CC0000F09F81236813F0020F54D07F4B9B6862
:1022DC0013F00C0F3ED07D4B9B6803F00C03082BC6
:1022EC0033D0E368002B68D0794B01221A60FFF7DA
:1022FC0095FA0546754B1B6813F0020F54D1FFF786
:10230C008DFA401B0228F5D903207FE16F4A136830
:10231C0043F480331360B5E76C4B1A6842F48022A7
:10232C001A601A6842F480321A60ABE7FFF776FA4B
:10233C000546664B1B6813F4003FC3D0FFF76EFADB
:10234C00401B6428F5D9032060E1604B5B6813F4F3
:10235C00800FC6D15D4B1B6813F0020F03D0E368EE
:10236C00012B40F05081594A136823F0F80321697E
:10237C0043EAC1031360236813F0080F42D063696A
:10238C006BB3534B0122C3F8802EFFF747FA054677
:10239C004E4B5B6F13F0020F34D1FFF73FFA401B2B
:1023AC000228F5D9032031E1484A136823F0F803D9
:1023BC00216943EAC1031360DDE7454B00221A6033
:1023CC00FFF72CFA0546414B1B6813F0020FD2D0D5
:1023DC00FFF724FA401B0228F5D9032016E13C4BE9
:1023EC000022C3F8802EFFF719FA0546374B5B6FB6
:1023FC0013F0020F06D0FFF711FA401B0228F5D993
:10240C00032003E1236813F0040F77D02F4B1B6CD0
:10241C0013F0805F33D1002301932C4B1A6C42F0E4
:10242C0080521A641B6C03F080530193019B0125AD
:10243C00284B1B6813F4807F23D0A368012B34D066
:10244C00052B38D0214B1A6F22F001021A671A6F34
:10245C0022F004021A67A368002B3DD0FFF7DEF9C7
:10246C0006461A4B1B6F13F0020F46D1FFF7D6F935
:10247C00801B41F288339842F3D90320C6E0002533
:10248C00D6E7144A136843F480731360FFF7C6F958
:10249C000646104B1B6813F4807FCED1FFF7BEF9B4
:1024AC00801B0228F5D90320B0E0084A136F43F0D3
:1024BC0001031367CFE7054B1A6F42F004021A674A
:1024CC001A6F42F001021A67C5E700BF00380240DC
:1024DC000000474200700040FFF7A0F90646524B3F
:1024EC001B6F13F0020F08D0FFF798F9801B41F215
:1024FC0088339842F3D9032088E0EDB9A369002B07
:10250C0000F08380484A926802F00C02082A51D0ED
:10251C00022B17D0454B00221A66FFF77FF90446B1
:10252C00414B1B6813F0007F42D0FFF777F9001B7B
:10253C000228F5D9032069E03B4A136C23F0805341
:10254C001364DBE7394B00221A66FFF767F905467F
:10255C00354B1B6813F0007F06D0FFF75FF9401B6B
:10256C000228F5D9032051E0E369226A1343626A19
:10257C0043EA8213A26A5208013A43EA0243E26A2E
:10258C0043EA0263284A5360284B01221A66FFF77C
:10259C0045F90446244B1B6813F0007F06D1FFF766
:1025AC003DF9001B0228F5D903202FE000202DE077
:1025BC0000202BE0012B2BD01B4B5B6803F480011C
:1025CC00E269914226D103F03F02216A8A4223D16B
:1025DC00616A47F6C0721A40B2EB811F1ED103F438
:1025EC004031A26A5208013AB1EB024F18D103F004
:1025FC007063E26AB3EB026F14D1002006E0012095
:10260C007047012002E0012000E0002002B070BD04
:10261C000120FBE70120F9E70120F7E70120F5E7AE
:10262C000120F3E70120F1E70038024000004742A7
:10263C0008B5254B9B6803F00C03042B3FD0082BEB
:10264C003FD1214B5A6802F03F025B6813F4800FB4
:10265C0012D01D4B5968C1F388111C480023A1FBF3
:10266C000001FDF7BDFD184B5B68C3F3014301335B
:10267C005B00B0FBF3F025E0134B5968C1F3881CE9
:10268C004FEA4C11B1EB0C006EEB0E0E4FEA8E13B1
:10269C0043EA90638101091A63EB0E03DB0043EA02
:1026AC005173C90011EB0C0C43F100039902002388
:1026BC004FEA8C2041EA9C51FDF792FDD3E7034889
:1026CC0000E0034808BD00BF0038024040787D019F
:1026DC000024F400002800F09B8070B50D460446E1
:1026EC004F4B1B6803F00F038B4208D2CBB24C4A02
:1026FC001370136803F00F038B4240F08B80236838
:10270C0013F0020F17D013F0040F04D0454A93684E
:10271C0043F4E0539360236813F0080F04D0414A4C
:10272C00936843F4604393603E4A936823F0F0034C
:10273C00A1680B439360236813F0010F32D06368D8
:10274C00012B21D09A1E012A25D9364A126812F083
:10275C00020F61D033498A6822F0030213438B6065
:10276C00FFF75CF806462F4B9B6803F00C0362687E
:10277C00B3EB820F16D0FFF751F8801B41F2883370
:10278C009842F0D9032042E0264A126812F4003F26
:10279C00E0D101203BE0234A126812F0007FD9D12E
:1027AC00012034E01E4B1B6803F00F03AB4207D92A
:1027BC00EAB21B4B1A701B6803F00F03AB422DD10E
:1027CC00236813F0040F06D0164A936823F4E053E1
:1027DC00E1680B439360236813F0080F07D0114A8C
:1027EC00936823F46043216943EAC1039360FFF7C4
:1027FC001FFF0C4B9B68C3F303130B4AD35CD840ED
:10280C000A4B18600A4B1868FEF7BCFF002070BD1D
:10281C00012070470120FAE70120F8E70120F6E7D4
:10282C00003C02400038024094470008040000209D
:10283C000C000020014B1868704700BF04000020FA
:10284C0008B5FFF7F7FF044B9B68C3F38223034AD9
:10285C00D35CD84008BD00BF00380240A447000834
:10286C0008B5FFF7E7FF044B9B68C3F34233034AF9
:10287C00D35CD84008BD00BF00380240A447000814
:10288C0038B504460268136923F44053C1680B43FE
:10289C00136183680269134342691343C2691A4383
:1028AC000168CB6823F4164323F00C031343CB606D
:1028BC000268536923F4407381690B4353610368C5
:1028CC00314A934206D002F58062934202D0FFF760
:1028DC00B7FF01E0FFF7C4FFE369B3F5004F29D060
:1028EC000021031849411B1841F10001C90041EABC
:1028FC005371DB00181863684FEA83024FEA937335
:10290C0041F10001FDF76CFC204DA5FB0032510993
:10291C00642303FB11031B013233A5FB03235B0967
:10292C0003F0F00202EB011203F00F0321681344D1
:10293C008B6038BD0023021843EB0301121841F1E0
:10294C000001C90041EA5271D200101841F1000196
:10295C00626892185B41FDF743FC0C4DA5FB0032FD
:10296C005109642303FB1103DB003233A5FB032362
:10297C005B095A0002F4F87202EB011203F0070330
:10298C00216813448B60D4E7001001401F85EB5184
:10299C002DE9F84305460F4616469946DDF820808A
:1029AC002C68246837EA04030CBF4FF0010C4FF07D
:1029BC00000CB4452DD1B8F1FF3FF1D0B8F1000FA8
:1029CC0005D0FEF72BFFA0EB09004045E8D92A689B
:1029DC0002F10C0353E8003F23F4D0730C3242E8AD
:1029EC0000310029F3D12A6802F1140353E8003FA7
:1029FC0023F00103143242E800310029F3D12023E3
:102A0C0085F83D3085F83E30002385F83C300320B6
:102A1C0000E00020BDE8F88358B310B5044690F8E8
:102A2C003D300BB3242384F83D302268D36823F463
:102A3C000053D3602046FFF723FF2268136923F469
:102A4C00904313612268536923F02A03536122686F
:102A5C00D36843F40053D36000202064202384F80F
:102A6C003D3084F83E3010BD80F83C30FEF7F8FA6B
:102A7C00D8E7012070472DE9F04182B01E4690F84E
:102A8C003D30DBB2202B54D104460D469046002934
:102A9C0053D0002A53D090F83C30012B51D0012355
:102AAC0080F83C3000230364212380F83D30FEF78E
:102ABC00B5FE0746A4F82480A4F82680A368B3F5D5
:102ACC00805F05D04FF00008002384F83C3012E002
:102ADC00236913B14FF00008F6E7A8460025F3E789
:102AEC0038F8023B2268C3F308035360E28C92B2BD
:102AFC00013A92B2E284E38C9BB273B100963B46EE
:102B0C00002280212046FFF743FFE0B9002DE7D0DB
:102B1C0015F8012B23685A60E8E700963B46002223
:102B2C0040212046FFF734FF78B9202384F83D304C
:102B3C0000E0022002B0BDE8F0810120FAE701209C
:102B4C00F8E70220F6E70320F4E70320F2E72DE98B
:102B5C00F04182B01E4690F83E30DBB2202B5CD1A7
:102B6C0004460D46904600295BD0002A5BD090F8B5
:102B7C003C30012B59D0012380F83C3000230364F6
:102B8C00222280F83E200363FEF748FE0746A4F895
:102B9C002C80A4F82E80A368B3F5805F05D04FF08D
:102BAC000008002384F83C3017E0236913B14FF080
:102BBC000008F6E7A8460025F3E723685B68C3F333
:102BCC00080328F8023B03E023685B682B7001358F
:102BDC00E28D92B2013A92B2E285E38D9BB2BBB127
:102BEC0000963B46002220212046FFF7D1FEF0B98B
:102BFC00002DE2D0A368B3F5805FE5D013B923694B
:102C0C00002BE1D023685B6803F07F032B70DEE7B9
:102C1C00202384F83E30002000E0022002B0BDE802
:102C2C00F0810120FAE70120F8E70220F6E7032003
:102C3C00F4E70000014B1868704700BF100000203B
:102C4C0070B50D4E0D4D761BB61006D0002455F800
:102C5C00043B01349847A642F9D1094E094D761B25
:102C6C0001F09CF8B61006D0002455F8043B013452
:102C7C009847A642F9D170BDB8470008B84700087C
:102C8C00C0470008B8470008830730B548D0541E29
:102C9C00002A3FD0CAB2034601E0013C3AD303F804
:102CAC00012B9D07F9D1032C2DD9CDB245EA052571
:102CBC000F2C45EA054536D9A4F1100222F00F0C71
:102CCC0003F1200EE6444FEA121C03F1100242E914
:102CDC00045542E9025510327245F8D10CF101024B
:102CEC0014F00C0F03EB021204F00F0C13D0ACF128
:102CFC00040323F003030433134442F8045B9342AC
:102D0C00FBD10CF003042CB1CAB21C4403F8012B08
:102D1C009C42FBD130BD64461346002CF4D1F9E73C
:102D2C0003461446BFE71A46A446E0E72DE9F043F4
:102D3C00694CD4F8008083B004460E4617461D46F5
:102D4C00B8F1000F03D0D8F83830002B77D0022F11
:102D5C0005D0012F00F2AC80002DC0F2A980636E6B
:102D6C00DA0752D52146404600F058F9216B41B1A3
:102D7C0004F14003994202D0404600F07BFA002354
:102D8C002363B4F90CC000231CF0800FA3616360B3
:102D9C0064D12CF44A6C2CF0030C022FA4F80CC058
:102DAC006AD001AB6A462146404600F095FBA389E8
:102DBC001843A081002D2FD0002E2ED0D8F83830FB
:102DCC00002B38D0009B2660AB42B4F90C301CBFF2
:102DDC0043F40063A381012F04BF43F00103A381DB
:102DEC009AB213F00803C4E904652CD0D1075DD561
:102DFC006D42A561656E002315F00105A36027D017
:102E0C000025284603B0BDE8F083A3899B05A9D40F
:102E1C00A06D00F05DFBA5E7009D284600F08CFB43
:102E2C000646002847D0A38943F08003A381D8F835
:102E3C003830002BC6D1404600F024F9C2E740469A
:102E4C0000F020F983E7A360656E15F00105D7D17A
:102E5C00930524D5284603B0BDE8F083216940468C
:102E6C0000F008FAB4F90CC02CF44A6C2CF0030CEA
:102E7C00022FA4F80CC094D10025002204F14303C6
:102E8C00A2600122C4E904322360636E4CF0020C90
:102E9C00D807A4F80CC0DDD41CF4007FDAD1A06DE7
:102EAC0000F018FB284603B0BDE8F083A560CBE723
:102EBC004FF0FF35CEE7DDF80090A94504D0484629
:102ECC0000F03AFB064620B9B4F90CC04FF0FF35C0
:102EDC00D3E74D46A7E700BF10000020024B13B10B
:102EEC00024800F005B8704700000000B53100083A
:102EFC00002301461A46184600F050BEB1F90C20CA
:102F0C00F8B50C461107074642D4636842F40062D8
:102F1C00002BA28159DDA56A002D54D000233E68F8
:102F2C003B6093B212F4805253D1E16901233846CD
:102F3C00A847421C63D0A389A56A5B0705D56368C3
:102F4C00C01A236B0BB1E36BC01AE1690246002374
:102F5C003846A847411C3ED13B68002B3BD01D2B6B
:102F6C0001D0162B52D1A3892269226023F400636D
:102F7C0000216160A381216B3E6021B304F1400309
:102F8C00994202D0384600F075F900202063F8BD54
:102F9C002669C6B193B2256826609A070CBF63698F
:102FAC000023AD1BA3600CE0D4F824C0E1692B46D0
:102FBC0032463846E047B0F1000CA5EB0C056644F0
:102FCC0016DD002DF0DC0020F8BDE36B002BA2DC3D
:102FDC00F9E7206DB1E7B4F90C302269226023F4D3
:102FEC000063A3810022DB046260C4D52065C2E7C4
:102FFC00A38943F040034FF0FF30A381F8BD3B6839
:10300C00002B98D01D2B06D0162B04D0A38943F08F
:10301C004003A381F8BD3E60D5E700BF38B50C4630
:10302C00054608B1836BA3B1B4F90C00B8B1636E5B
:10303C00DB0701D4810515D528462146FFF75EFF35
:10304C00636EDA07054602D4A3899B050ED5284684
:10305C0038BD00F017F8B4F90C000028E7D105468C
:10306C00284638BDA06D00F033FAE5E7A06D00F0FE
:10307C0031FA284638BD00BF014900F001BA00BF43
:10308C00593C00082DE9F0478246394800F020FAF7
:10309C00DAF83840002C66D1DAF80450354ACAF810
:1030AC003C200323CAE9B843DFF8CC90DFF8CC808E
:1030BC00334F344E04230AF53B72CAF8E8222146FA
:1030CC00C5E90243C5E90044C5E904446C6608221D
:1030DC00AC6105F15C00FFF7D7FDC5E90759C5E9FF
:1030EC000987EE6205F1580000F0EEF9DAF80850A5
:1030FC00254BEB602146C5E90044C5E904446C66E8
:10310C00AC60AC61082205F15C00FFF7BDFDC5E9C0
:10311C000759C5E90987EE6205F1580000F0D4F9AA
:10312C00DAF80C50194BEB602146C5E90044C5E9AF
:10313C0004446C66AC60AC61082205F15C00FFF7DE
:10314C00A3FD05F15800C5E90759C5E90A76C5F88C
:10315C00248000F0B9F90123CAF838300448BDE8DE
:10316C00F04700F0B7B9BDE8F047014800F0B2B93C
:10317C00440D002085300008F13A0008153B00088A
:10318C00553B0008753B00080900010012000200C5
:10319C00014800F09DB900BF400D0020014800F02F
:1031AC0099B900BF400D002038B5084B084D5B1B8A
:1031BC009C1007D0043B1D44013C55F8043998473A
:1031CC00002CF9D1BDE8384000F0EEBDC447000832
:1031DC00C0470008F8B5244F0C46064600F064FCC6
:1031EC00BA685568C4F57E630F3325F003052B448C
:1031FC0023F47F6323F00F03A3F58054B4F5805FB1
:10320C0007DB0021304600F05BFCBB682B44984286
:10321C0004D0304600F04EFC0020F8BD6142304630
:10322C0000F04EFC01300DD0104ABB682D1B45F050
:10323C0001055D60136830461B1B136000F03AFCFF
:10324C000120F8BD0021304600F03AFCBA68831A20
:10325C000F2BDEDD43F001035360054B03491B6864
:10326C00C01A0860D5E700BF44040020480D0020B8
:10327C004C080020002961D0F8B50C46064600F039
:10328C0013FC54F8042C7B4FA4F1080522F0010127
:10329C0005EB010CB868DCF80430604523F003033F
:1032AC0000F08B80D207CCF8043032D454F8082CC0
:1032BC00AD1A1144AA6807F1080082426AD00CEBDF
:1032CC000304D4F804E0EC68D4601EF0010FA26093
:1032DC0000F0978041F001036B60CCF80010B1F561
:1032EC00007F35D27A68CB0848090121013381402F
:1032FC001143796007EBC30257F83310083AC5E95C
:10330C00021247F83350CD603046BDE8F84000F06B
:10331C00D1BB0CEB03025268D00710D4194407F14F
:10332C000800DCF80830834273D0DCF80C20DA603B
:10333C00936041F001036B606950D0E7704741F036
:10334C000103B1F5007F44F8043CCCF80010C9D35C
:10335C00B1F5206F4FEA512348D28B0903F13900A4
:10336C0003F13802C300F818FB580838984259D0BA
:10337C005A6822F003028A4202D99B689842F7D11C
:10338C00D868C5E902308560DD603046BDE8F8409C
:10339C0000F090BB0CEB03025268D20763D40B44D1
:1033AC00DCE90212CA60916043F001026A603046A7
:1033BC00EB50BDE8F84000F07DBB0B44D10707D4BF
:1033CC0054F8082CAD1A1344D5E90212CA60916066
:1033DC0043F001026A60284ABD6012689A4293D891
:1033EC00264B30461968FFF7F5FE8DE7142B0AD9EA
:1033FC00542B1FD80B0B03F16F0003F16E02C300AB
:10340C00B1E719448DE703F15C0003F15B02C300E3
:10341C00A9E741F00103C7E90455C5E902006B6057
:10342C00695071E779689210012404FA02F20A4398
:10343C007A60A6E7B3F5AA7F06D8CB0B03F1780028
:10344C0003F17702C3008EE740F25452934206D840
:10345C008B0C03F17D0003F17C02C30083E74FF476
:10346C007E737E227FE741F001036B60CCF8001085
:10347C004AE700BF4404002050080020780D0020CB
:10348C002DE9F8430746884600F538764FF00009D9
:10349C00D6E90154013D11D4A389012B05F1FF3567
:1034AC0008D9B4F90E300133214603D03846C04751
:1034BC0049EA00096B1C04F16804EDD13668002E52
:1034CC00E6D14846BDE8F883704700BF704700BF9F
:1034DC00704700BF704700BF70B50C46B1F90E10B5
:1034EC00002996B015461E4614DB6A4600F014FC03
:1034FC0000280FDB019A02F47042A2F50052B2FAD6
:10350C0082F24FF4806352094FF4006032602B60FA
:10351C0016B070BDB4F90C10002311F080003360AC
:10352C0004D0402218462A6016B070BD4FF4806358
:10353C002B6016B070BD00BF024B0146186800F03E
:10354C0003B800BF100000202DE9F04F01F10B066D
:10355C00162E83B0044624D8102900F2BA8000F04D
:10356C00A3FA102618220220B54F3A44A2F1080102
:10357C0053688B4200F0BA805A68D96822F0030273
:10358C001A449D68E9608D60516841F00101204644
:10359C00516003F1080500F08DFA284603B0BDE830
:1035AC00F08F36F0070600F19480B14200F2918062
:1035BC0000F07AFAB6F5FC7FC0F09A81730A00F03D
:1035CC008F80042B00F26F81B30903F1390003F1F2
:1035DC00380CC3009A4F3B44A3F108055B689D422D
:1035EC0006D10CE0002980F22781DB689D4206D0D1
:1035FC005A6822F00302911B0F29F3DD60463D69E6
:10360C00DFF840C265457CD06A6822F00302931B48
:10361C000F2B00F37B81002BC7E904CC80F26C816B
:10362C00B2F5007F80F01A81D308796801334FEA34
:10363C00521E012202FA0EF20A4357F833E0C5F883
:10364C0008E007EBC3010839E9607A6047F83350AA
:10365C00CEF80C50831001219940914257D8114259
:10366C0006D120F003004900114200F10400FAD009
:10367C0007EBC0094D468646D5F80C80454508D168
:10368C001DE1002B80F22481D8F80C80454500F018
:10369C001681D8F8042022F00302931B0F2BF0DDC7
:1036AC002046D8E9025408EB060146F00106C8F89A
:1036BC000460EC60A56043F00104C7E90411C1E9A2
:1036CC0002CC4C6048F8023000F0F4F908F108051F
:1036DC0002E00C2323600025284603B0BDE8F08FE0
:1036EC004FF4007340204FF03F0C73E7D3689A42BD
:1036FC0008BF02307FF440AF3D69DFF848C1654533
:10370C0082D17A688310012199409142A7D9BD6872
:10371C006B6823F003094E4503D8A9EB06030F2B66
:10372C007ADCDFF824B1494BDBF800201B6801324E
:10373C00334405EB090A00F0338103F580530F3352
:10374C0023F47F6828F00F084146204600F0B8F9B2
:10375C00411C024600F0F380824500F2EE803C4BA7
:10376C00196841441960084600F04E81DBF80010DE
:10377C00019301311BBFA2EB0A0A5044CBF8002085
:10378C00186012F0070B00F01781CBF108010A4406
:10379C00CBF5805190440831A1EB0801C1F30B0A21
:1037AC0051462046009200F08BF9421CDDE90023C3
:1037BC0000F04F81801A00EB0A081968BA6048F0D3
:1037CC0001005144BD425060196000F02981B9F1EB
:1037DC000F0F40F227816868A9F10C0C2CF0070C34
:1037EC0000F0010040EA0C0068604FF0050E05EB9C
:1037FC000C00BCF10F0FC0E901EE00F232815068F1
:10380C001546144B1A688A4238BF1960124B1A6855
:10381C008A4238BF196094E0AA1943F0010346F0BC
:10382C0001066E602046BA60536000F043F908351B
:10383C00284603B0BDE8F08FD9681A44A1E600BF52
:10384C00440400204C0400204C080020780D00207B
:10385C00480D0020700D0020740D0020B2F5206F73
:10386C004FEA522363D3142B00F2B78003F15C01AF
:10387C00C9005B3307EB010E7958AEF1080E8E458B
:10388C0000F091804B6823F00303934202D98968BE
:10389C008E45F7D1D1F80CE07A68C5E9021ECEF856
:1038AC000850CD60D6E6142B59D9542B00F29D80CC
:1038BC00330B03F16F0003F16E0CC3008AE60EF1BB
:1038CC00010E1EF0030F05F108057FF4D5AE51E093
:1038DC00424445465368D8F80C1043F0010353603A
:1038EC0055F8083F2046D9608B6000F0E3F8F3E60A
:1038FC00F00806F1080237E62A442046536843F0E4
:10390C0001035360083500F0D5F8E5E6A919204607
:10391C0046F0010643F001046E60C7E90411C1E9E9
:10392C0002CC4C60AB5000F0C5F80835D4E69309D6
:10393C0003F13901C90038339CE7BD425FD0BD6843
:10394C00686820F003084645A8EB060302D80F2B45
:10395C003FF762AF204600F0ADF80025BCE603F15E
:10396C005C0003F15B0CC30034E659F808394B4595
:10397C0040F0968010F0030F00F1FF30F5D17B681A
:10398C0023EA01037B60490099423FF6C0AE19B9A6
:10399C00BDE649000EF1040E1942FAD0704667E6F6
:1039AC0003F11008D0E69A104FF001087B6808FA72
:1039BC0002F21A437A6070E702EB08014942C1F344
:1039CC000B0A51462046009200F07AF8431CDDE9C0
:1039DC0000237FF4EFAEDA46EFE6542B25D8130B19
:1039EC0003F16F01C9006E3344E7B3F5AA7F25D804
:1039FC00F30B03F1780003F1770CC300EAE5294BD4
:103A0C00186840441860B1E6CAF30B0CBCF1000F07
:103A1C007FF4ACAEBD68C84448F001006860F0E6C5
:103A2C001546EEE60123536094E7B3F5AA7F23D83D
:103A3C00D30B03F17801C90077331BE740F25452E2
:103A4C00934223D8B30C03F17D0003F17C0CC3002B
:103A5C00C0E5ABF1080BD844A8EB02084FF0000A04
:103A6C00ABE605F1080120460093FFF703FCBD68A7
:103A7C00009B68681968C4E640F254518B420BD81D
:103A8C00930C03F17D01C9007C33F3E64FF47E7394
:103A9C007F204FF07E0C9DE54FF47E717E23E9E68E
:103AAC007B6870E7480D00200148FFF711BD00BF8F
:103ABC003C0D00200148FFF70DBD00BF3C0D002060
:103ACC0038B5074D0022044608462A60FDF788FAEF
:103ADC00431C00D038BD2B68002BFBD0236038BDB5
:103AEC007C0D002010B50C46B1F90E1000F040F919
:103AFC00002803DB236D0344236510BDA38923F445
:103B0C008053A38110BD00BF2DE9F0410C46B1F9E3
:103B1C000C101F46CB05054616460BD421F48051DC
:103B2C00A1813B46B4F90E1032462846BDE8F0415F
:103B3C0000F01EB8B4F90E100223002200F002F9B6
:103B4C00B4F90C10EAE700BF10B50C46B1F90E1031
:103B5C0000F0F8F8A389421C0EBF23F4805343F401
:103B6C0080532065A38110BDB1F90E1000F05CB834
:103B7C0038B50C46084D8446114620461A4600239B
:103B8C002B606446FDF7B0F9431C00D038BD2B68A0
:103B9C00002BFBD0236038BD7C0D00202DE9F047B5
:103BAC00DFF87CA00646DAF8000098460F469146EE
:103BBC00FFF78EFC1B4B1B68D3F8484124B3656898
:103BCC001F2D26DC5EB96B1C0235DAF80000636031
:103BDC0044F82570FFF77EFC0020BDE8F08704EB6D
:103BEC0085010123C1F88890D4F88821AB401A4391
:103BFC00022EC4F88821C1F80881E4D1D4F88C21B4
:103C0C001343C4F88C31DEE703F5A674C3F84841BE
:103C1C00D5E7DAF80000FFF75DFC4FF0FF30DCE78A
:103C2C0040040020AC47000838B5074D002204467C
:103C3C0008462A60FDF772F9431C00D038BD2B688A
:103C4C00002BFBD0236038BD7C0D002070B5002903
:103C5C004BD006460C4610B1836B002B48D0636EDC
:103C6C00D80734D5B4F90C30002B3ED02146304661
:103C7C00FFF744F9E36A054633B1E16930469847EA
:103C8C000028B8BF4FF0FF35A3891A063BD4216B2F
:103C9C0041B104F14003994202D03046FFF7EAFAF1
:103CAC0000232363616C21B13046FFF7E3FA002354
:103CBC006364FFF76DFA636E0022DB07A28127D5E0
:103CCC00A06DFFF703FCFFF769FA284670BDA389C6
:103CDC009905CBD4A06DFFF7FBFBB4F90C30002B8E
:103CEC00C4D1656E15F0010508D00025284670BDBD
:103CFC00FFF7C8F9636ED807B4D4E8E7A06DFFF7F7
:103D0C00E9FB284670BD21693046FFF7B3FABEE7E0
:103D1C00A06DFFF7DFFBD3E770B50C46084D0346EB
:103D2C000026204611461C462E60FDF723F9431C45
:103D3C0000D070BD2B68002BFBD0236070BD00BF82
:103D4C007C0D002038B50C46084D844611462046A3
:103D5C001A4600232B606446FDF7ECF8431C00D098
:103D6C0038BD2B68002BFBD0236038BD7C0D0020A8
:103D7C0038B50C46084D8446114620461A46002399
:103D8C002B606446FDF7DEF8431C00D038BD2B6871
:103D9C00002BFBD0236038BD7C0D0020F8B500BF94
:103DAC00F8BC08BC9E467047F8B500BFF8BC08BC10
:043DBC009E46704768
:103DC00057616974696E6720666F72207468652038
:103DD00066696C6520746F2062652073656E74205F
:103DE0002E2E2E2028707265737320276127207471
:103DF0006F2061626F7274290A0D00000A0A0D209B
:103E000050726F6772616D6D696E6720436F6D7080
:103E10006C65746564205375636365737366756C54
:103E20006C79210A0D2D2D2D2D2D2D2D2D2D2D2D86
:103E30002D2D2D2D2D2D2D2D2D2D2D2D2D2D2D2DB2
:103E40002D2D2D2D2D0D0A204E616D653A2000007F
:103E50000A0D2053697A653A2000000020427974E7
:103E600065730D0A000000002D2D2D2D2D2D2D2DFB
:103E70002D2D2D2D2D2D2D2D2D2D2D0A0000000049
:103E80000A0A0D54686520696D6167652073697A57
:103E90006520697320686967686572207468616E5F
:103EA0002074686520616C6C6F7765642073706145
:103EB0006365206D656D6F7279210A0D0000000049
:103EC0000A0A0D566572696669636174696F6E20CE
:103ED0006661696C6564210A0D0000000D0A0A41E3
:103EE000626F7274656420627920757365722E0A40
:103EF0000D0000000A0D4661696C656420746F2036
:103F000072656365697665207468652066696C65AD
:103F1000210A0D000A0A0D53656C65637420526511
:103F200063656976652046696C650A0D00000000CE
:103F300055706C6F61646564466C617368496D614E
:103F400067652E62696E00000A0D4572726F7220FD
:103F50004F63637572726564207768696C6520547D
:103F600072616E736D697474696E672046696C6501
:103F70000A0D00000A0D46696C652075706C6F6152
:103F8000646564207375636365737366756C6C79BF
:103F9000200A0D000D0A2A2A2A2A2A2A2A2A2A2A2F
:103FA0002A2A2A2A2A2A2A2A2A2A2A2A2A2A2A2A71
:103FB0002A2A2A2A2A2A2A2A2A2A2A2A2A2A2A2A61
:103FC0002A2A2A2A2A2A2A2A2A2A2A2A2A2A2A2A51
:103FD0002A2A2A2A2A2A2A2A2A2A2A2A2A2A2A2A41
:103FE0002A2A2A2A2A0000000D0A2A20202020201E
:103FF00020202020202020202028432920434F500B
:10400000595249474854203230313920556E636C3B
:10401000654D6163202020202020202020202020AA
:104020002020202020202020202020202020202090
:1040300020202020202020202A0000000D0A2A20F5
:104040002020202020202020202020202020202070
:104050002020202020202020202020202020202060
:104060002020202020202020202020202020202050
:104070002020202020202020202020202020202040
:104080002020202020202020202020202A00000086
:104090000D0A2A202020202020205F5F5F5F202043
:1040A0002020202020202020202020205F5F202092
:1040B0005F5F202020202020202020202020202082
:1040C00020205F5F20202020202020202020202072
:1040D00020202020202020202020202020202020E0
:1040E0002A0000000D0A2A2020202020202F205FF7
:1040F0005F20295F5F5F5F20205F5F5F5F20202F71
:10410000202F5F2F202F5F5F5F20205F5F5F5F208A
:104110005F5F5F5F5F2F202F5F5F20205F5F5F5FCC
:104120005F20202020202020202020202020202050
:10413000202020202A0000000D0A2A2020202020F4
:104140002F205F5F20202F205F5F205C2F205F5F8C
:10415000205C2F205F5F2F202F205F5F205C2F20AF
:104160005F5F20602F205F5F20202F205F205C2F6B
:10417000205F5F5F2F202020202020202020202073
:1041800020202020202020202A0000000D0A2A20A4
:104190002020202F202F5F2F202F202F5F2F202F38
:1041A000202F5F2F202F202F5F2F202F202F5F2FDA
:1041B000202F202F5F2F202F202F5F2F202F202018
:1041C0005F5F2F202F202020202020202020202053
:1041D0002020202020202020202020202A00000035
:1041E0000D0A2A2020202F5F5F5F5F5F2F5C5F5FDB
:1041F0005F5F2F5C5F5F5F5F2F5C5F5F2F5F2F5C98
:104200005F5F5F5F2F5C5F5F2C5F2F5C5F5F2C5F8A
:104210002F5C5F5F5F2F5F2F202020202020202039
:10422000202020202020202020202020202020208E
:104230002A0000000D0A2A2020202020426F6F74DF
:104240006C6F6164657220666F7220504D534D2013
:104250006F6E2073746D333266313063627436284A
:1042600056657273696F6E20302E302E31292020F2
:10427000202020202020202020202020202020203E
:10428000202020202A0000000D0A2A2020202020A3
:1042900068747470733A2F2F626C6F672E63736447
:1042A0006E2E6E65742F75303130363332313635BF
:1042B00020202020202020202020202020202020FE
:1042C00020202020202020202020202020202020EE
:1042D00020202020202020202A0000000D0A2A2053
:1042E00020202020202020202020202020202020CE
:1042F00020202020202020202020202020202020BE
:104300002020427920556E636C654D61632020202A
:10431000202020202020202020202020202020209D
:104320002020202020202020202020202A000000E3
:104330000D0A0D0A000000000D0A3D3D3D3D3D3DCA
:104340003D3D3D3D3D3D3D3D3D3D3D3D3D3D3D3D9D
:104350003D3D3D3D3D3D3D3D3D3D3D3D3D3D3D3D8D
:104360003D3D3D3D3D3D3D3D3D3D3D3D3D3D3D3D7D
:104370003D3D3D3D3D3D3D3D3D3D3D3D3D3D3D3D6D
:10438000000000000D0A3D202020202020202020B9
:10439000202020202028432920434F5059524947AC
:1043A000485420323031362053544D6963726F6562
:1043B0006C656374726F6E69637320202020202007
:1043C00020202020202020202020203D0000000050
:1043D0000D0A3D20202020202020202020202020E9
:1043E00020202020202020202020202020202020CD
:1043F00020202020202020202020202020202020BD
:1044000020202020202020202020202020202020AC
:10441000202020202020203D000000000D0A3D200B
:1044200020202020202020202053544D3332463499
:10443000787820496E2D4170706C69636174696F82
:104440006E2050726F6772616D6D696E672041708A
:10445000706C69636174696F6E20202020202020B9
:104460002020203D000000000D0A3D2020202020BB
:10447000202020202020202020202020202020203C
:1044800020204279204D4344204170706C69636163
:1044900074696F6E205465616D20202020202020DB
:1044A0002020202020202020202020202020203DEF
:1044B000000000000D0A3D3D3D3D3D3D3D3D3D3D83
:1044C0003D3D3D3D3D3D3D3D3D204D61696E204DB5
:1044D000656E75203D3D3D3D3D3D3D3D3D3D3D3D98
:1044E0003D3D3D3D3D3D3D3D3D3D3D3D3D3D3D3DFC
:1044F0000D0A0A002020446F776E6C6F616420699A
:104500006D61676520746F2074686520696E7465DD
:10451000726E616C20466C617368202D2D2D2D2DDF
:104520002D2D2D2D2D2D2D2D2D2D2D2D20310D0A07
:104530000A000000202055706C6F616420696D6175
:1045400067652066726F6D2074686520696E74659A
:10455000726E616C20466C617368202D2D2D2D2D9F
:104560002D2D2D2D2D2D2D2D2D2D2D2D20320D0AC6
:104570000A00000020204578656375746520746822
:1045800065206C6F61646564206170706C69636143
:1045900074696F6E202D2D2D2D2D2D2D2D2D2D2D52
:1045A0002D2D2D2D2D2D2D2D2D2D2D2D20330D0A85
:1045B0000A000000202044697361626C6520746801
:1045C000652077726974652070726F7465637469B1
:1045D0006F6E202D2D2D2D2D2D2D2D2D2D2D2D2D95
:1045E0002D2D2D2D2D2D2D2D2D2D2D2D20340D0A44
:1045F0000A0000002020456E61626C6520746865C9
:104600002077726974652070726F74656374696F66
:104610006E202D2D2D2D2D2D2D2D2D2D2D2D2D2D96
:104620002D2D2D2D2D2D2D2D2D2D2D2D20340D0A03
:104630000A0000003D3D3D3D3D3D3D3D3D3D3D3D94
:104640003D3D3D3D3D3D3D3D3D3D3D3D3D3D3D3D9A
:104650003D3D3D3D3D3D3D3D3D3D3D3D3D3D3D3D8A
:104660003D3D3D3D3D3D3D3D3D3D3D3D3D3D0D0ADD
:104670000A00000053746172742070726F67726177
:104680006D20657865637574696F6E2E2E2E2E2EE3
:104690002E0D0A0A000000005772697465205072DE
:1046A0006F74656374696F6E2064697361626C65B1
:1046B000642E2E2E0D0A000053797374656D2077D9
:1046C000696C6C206E6F7720726573746172742EE2
:1046D0002E2E0D0A000000004572726F723A2046BD
:1046E0006C61736820777269746520756E2D7072C5
:1046F0006F74656374696F6E206661696C65642EA2
:104700002E2E0D0A00000000577269746520507249
:104710006F74656374696F6E20656E61626C656449
:104720002E2E2E0D0A0000004572726F723A20463E
:104730006C6173682077726974652070726F74653C
:104740006374696F6E206661696C65642E2E2E0D30
:104750000A000000496E76616C6964204E756D62D6
:1047600065722021203D3D3E20546865206E756DA8
:104770006265722073686F756C642062652065697C
:104780007468657220312C20322C2033206F722007
:10479000340D0000000000000000000001020304CE
:1047A00006070809000000000102030418000020A9
:0847B0006CBAFF7F010000005C
:0847B800E92E0008D101000800
:0447C000AD0100083F
:1047C400010000000024F4000100000010000000BB
:1047D4001800002000000000000000000403002076
:1047E4006C030020D403002000000000000000003F
:1047F40000000000000000000000000000000000B5
:1048040000000000000000000000000000000000A4
:104814000000000000000000000000000000000094
:104824000000000000000000000000000000000084
:104834000000000000000000000000000000000074
:104844000000000000000000000000000000000064
:104854000000000000000000000000000000000054
:104864000000000000000000000000000000000044
:104874000000000000000000000000000000000034
:1048840001000000000000000E33CDAB34126DE6D1
:10489400ECDE05000B00000000000000000000003A
:1048A4000000000000000000000000000000000004
:1048B40000000000000000000000000000000000F4
:1048C40000000000000000000000000000000000E4
:1048D40000000000000000000000000000000000D4
:104C0400380D0020000000000000000044040020D3
:104C1400440400204C0400204C04002054040020D0
:104C2400540400205C0400205C0400206404002080
:104C3400640400206C0400206C0400207404002030
:104C4400740400207C0400207C04002084040020E0
:104C5400840400208C0400208C0400209404002090
:104C6400940400209C0400209C040020A404002040
:104C7400A4040020AC040020AC040020B4040020F0
:104C8400B4040020BC040020BC040020C4040020A0
:104C9400C4040020CC040020CC040020D404002050
:104CA400D4040020DC040020DC040020E404002000
:104CB400E4040020EC040020EC040020F4040020B0
:104CC400F4040020FC040020FC040020040500205F
:104CD400040500200C0500200C050020140500200C
:104CE400140500201C0500201C05002024050020BC
:104CF400240500202C0500202C050020340500206C
:104D0400340500203C0500203C050020440500201B
:104D1400440500204C0500204C05002054050020CB
:104D2400540500205C0500205C050020640500207B
:104D3400640500206C0500206C050020740500202B
:104D4400740500207C0500207C05002084050020DB
:104D5400840500208C0500208C050020940500208B
:104D6400940500209C0500209C050020A40500203B
:104D7400A4050020AC050020AC050020B4050020EB
:104D8400B4050020BC050020BC050020C40500209B
:104D9400C4050020CC050020CC050020D40500204B
:104DA400D4050020DC050020DC050020E4050020FB
:104DB400E4050020EC050020EC050020F4050020AB
:104DC400F4050020FC050020FC050020040600205A
:104DD400040600200C0600200C0600201406002007
:104DE400140600201C0600201C06002024060020B7
:104DF400240600202C0600202C0600203406002067
:104E0400340600203C0600203C0600204406002016
:104E1400440600204C0600204C06002054060020C6
:104E2400540600205C0600205C0600206406002076
:104E3400640600206C0600206C0600207406002026
:104E4400740600207C0600207C06002084060020D6
:104E5400840600208C0600208C0600209406002086
:104E6400940600209C0600209C060020A406002036
:104E7400A4060020AC060020AC060020B4060020E6
:104E8400B4060020BC060020BC060020C406002096
:104E9400C4060020CC060020CC060020D406002046
:104EA400D4060020DC060020DC060020E4060020F6
:104EB400E4060020EC060020EC060020F4060020A6
:104EC400F4060020FC060020FC0600200407002055
:104ED400040700200C0700200C0700201407002002
:104EE400140700201C0700201C07002024070020B2
:104EF400240700202C0700202C0700203407002062
:104F0400340700203C0700203C0700204407002011
:104F1400440700204C0700204C07002054070020C1
:104F2400540700205C0700205C0700206407002071
:104F3400640700206C0700206C0700207407002021
:104F4400740700207C0700207C07002084070020D1
:104F5400840700208C0700208C0700209407002081
:104F6400940700209C0700209C070020A407002031
:104F7400A4070020AC070020AC070020B4070020E1
:104F8400B4070020BC070020BC070020C407002091
:104F9400C4070020CC070020CC070020D407002041
:104FA400D4070020DC070020DC070020E4070020F1
:104FB400E4070020EC070020EC070020F4070020A1
:104FC400F4070020FC070020FC0700200408002050
:104FD400040800200C0800200C08002014080020FD
:104FE400140800201C0800201C08002024080020AD
:104FF400240800202C0800202C080020340800205D
:10500400340800203C0800203C080020FFFFFFFF7C
:045014000000020096
:040000050800173D9B
:00000001FF
